{
  "contractName": "NftMarket",
  "abi": [
    {
      "inputs": [],
      "stateMutability": "nonpayable",
      "type": "constructor"
    },
    {
      "anonymous": false,
      "inputs": [
        {
          "indexed": true,
          "internalType": "address",
          "name": "owner",
          "type": "address"
        },
        {
          "indexed": true,
          "internalType": "address",
          "name": "approved",
          "type": "address"
        },
        {
          "indexed": true,
          "internalType": "uint256",
          "name": "tokenId",
          "type": "uint256"
        }
      ],
      "name": "Approval",
      "type": "event"
    },
    {
      "anonymous": false,
      "inputs": [
        {
          "indexed": true,
          "internalType": "address",
          "name": "owner",
          "type": "address"
        },
        {
          "indexed": true,
          "internalType": "address",
          "name": "operator",
          "type": "address"
        },
        {
          "indexed": false,
          "internalType": "bool",
          "name": "approved",
          "type": "bool"
        }
      ],
      "name": "ApprovalForAll",
      "type": "event"
    },
    {
      "anonymous": false,
      "inputs": [
        {
          "indexed": false,
          "internalType": "uint256",
          "name": "tokenId",
          "type": "uint256"
        },
        {
          "indexed": false,
          "internalType": "uint256",
          "name": "price",
          "type": "uint256"
        },
        {
          "indexed": false,
          "internalType": "address",
          "name": "creator",
          "type": "address"
        },
        {
          "indexed": false,
          "internalType": "bool",
          "name": "isListed",
          "type": "bool"
        }
      ],
      "name": "NftItemCreated",
      "type": "event"
    },
    {
      "anonymous": false,
      "inputs": [
        {
          "indexed": true,
          "internalType": "address",
          "name": "previousOwner",
          "type": "address"
        },
        {
          "indexed": true,
          "internalType": "address",
          "name": "newOwner",
          "type": "address"
        }
      ],
      "name": "OwnershipTransferred",
      "type": "event"
    },
    {
      "anonymous": false,
      "inputs": [
        {
          "indexed": true,
          "internalType": "address",
          "name": "from",
          "type": "address"
        },
        {
          "indexed": true,
          "internalType": "address",
          "name": "to",
          "type": "address"
        },
        {
          "indexed": true,
          "internalType": "uint256",
          "name": "tokenId",
          "type": "uint256"
        }
      ],
      "name": "Transfer",
      "type": "event"
    },
    {
      "inputs": [
        {
          "internalType": "address",
          "name": "to",
          "type": "address"
        },
        {
          "internalType": "uint256",
          "name": "tokenId",
          "type": "uint256"
        }
      ],
      "name": "approve",
      "outputs": [],
      "stateMutability": "nonpayable",
      "type": "function"
    },
    {
      "inputs": [
        {
          "internalType": "address",
          "name": "owner",
          "type": "address"
        }
      ],
      "name": "balanceOf",
      "outputs": [
        {
          "internalType": "uint256",
          "name": "",
          "type": "uint256"
        }
      ],
      "stateMutability": "view",
      "type": "function",
      "constant": true
    },
    {
      "inputs": [
        {
          "internalType": "uint256",
          "name": "tokenId",
          "type": "uint256"
        }
      ],
      "name": "getApproved",
      "outputs": [
        {
          "internalType": "address",
          "name": "",
          "type": "address"
        }
      ],
      "stateMutability": "view",
      "type": "function",
      "constant": true
    },
    {
      "inputs": [
        {
          "internalType": "address",
          "name": "owner",
          "type": "address"
        },
        {
          "internalType": "address",
          "name": "operator",
          "type": "address"
        }
      ],
      "name": "isApprovedForAll",
      "outputs": [
        {
          "internalType": "bool",
          "name": "",
          "type": "bool"
        }
      ],
      "stateMutability": "view",
      "type": "function",
      "constant": true
    },
    {
      "inputs": [],
      "name": "listingPrice",
      "outputs": [
        {
          "internalType": "uint256",
          "name": "",
          "type": "uint256"
        }
      ],
      "stateMutability": "view",
      "type": "function",
      "constant": true
    },
    {
      "inputs": [],
      "name": "name",
      "outputs": [
        {
          "internalType": "string",
          "name": "",
          "type": "string"
        }
      ],
      "stateMutability": "view",
      "type": "function",
      "constant": true
    },
    {
      "inputs": [],
      "name": "owner",
      "outputs": [
        {
          "internalType": "address",
          "name": "",
          "type": "address"
        }
      ],
      "stateMutability": "view",
      "type": "function",
      "constant": true
    },
    {
      "inputs": [
        {
          "internalType": "uint256",
          "name": "tokenId",
          "type": "uint256"
        }
      ],
      "name": "ownerOf",
      "outputs": [
        {
          "internalType": "address",
          "name": "",
          "type": "address"
        }
      ],
      "stateMutability": "view",
      "type": "function",
      "constant": true
    },
    {
      "inputs": [],
      "name": "renounceOwnership",
      "outputs": [],
      "stateMutability": "nonpayable",
      "type": "function"
    },
    {
      "inputs": [
        {
          "internalType": "address",
          "name": "from",
          "type": "address"
        },
        {
          "internalType": "address",
          "name": "to",
          "type": "address"
        },
        {
          "internalType": "uint256",
          "name": "tokenId",
          "type": "uint256"
        }
      ],
      "name": "safeTransferFrom",
      "outputs": [],
      "stateMutability": "nonpayable",
      "type": "function"
    },
    {
      "inputs": [
        {
          "internalType": "address",
          "name": "from",
          "type": "address"
        },
        {
          "internalType": "address",
          "name": "to",
          "type": "address"
        },
        {
          "internalType": "uint256",
          "name": "tokenId",
          "type": "uint256"
        },
        {
          "internalType": "bytes",
          "name": "_data",
          "type": "bytes"
        }
      ],
      "name": "safeTransferFrom",
      "outputs": [],
      "stateMutability": "nonpayable",
      "type": "function"
    },
    {
      "inputs": [
        {
          "internalType": "address",
          "name": "operator",
          "type": "address"
        },
        {
          "internalType": "bool",
          "name": "approved",
          "type": "bool"
        }
      ],
      "name": "setApprovalForAll",
      "outputs": [],
      "stateMutability": "nonpayable",
      "type": "function"
    },
    {
      "inputs": [
        {
          "internalType": "bytes4",
          "name": "interfaceId",
          "type": "bytes4"
        }
      ],
      "name": "supportsInterface",
      "outputs": [
        {
          "internalType": "bool",
          "name": "",
          "type": "bool"
        }
      ],
      "stateMutability": "view",
      "type": "function",
      "constant": true
    },
    {
      "inputs": [],
      "name": "symbol",
      "outputs": [
        {
          "internalType": "string",
          "name": "",
          "type": "string"
        }
      ],
      "stateMutability": "view",
      "type": "function",
      "constant": true
    },
    {
      "inputs": [
        {
          "internalType": "uint256",
          "name": "tokenId",
          "type": "uint256"
        }
      ],
      "name": "tokenURI",
      "outputs": [
        {
          "internalType": "string",
          "name": "",
          "type": "string"
        }
      ],
      "stateMutability": "view",
      "type": "function",
      "constant": true
    },
    {
      "inputs": [
        {
          "internalType": "address",
          "name": "from",
          "type": "address"
        },
        {
          "internalType": "address",
          "name": "to",
          "type": "address"
        },
        {
          "internalType": "uint256",
          "name": "tokenId",
          "type": "uint256"
        }
      ],
      "name": "transferFrom",
      "outputs": [],
      "stateMutability": "nonpayable",
      "type": "function"
    },
    {
      "inputs": [
        {
          "internalType": "address",
          "name": "newOwner",
          "type": "address"
        }
      ],
      "name": "transferOwnership",
      "outputs": [],
      "stateMutability": "nonpayable",
      "type": "function"
    },
    {
      "inputs": [],
      "name": "totalSupply",
      "outputs": [
        {
          "internalType": "uint256",
          "name": "",
          "type": "uint256"
        }
      ],
      "stateMutability": "view",
      "type": "function",
      "constant": true
    },
    {
      "inputs": [
        {
          "internalType": "uint256",
          "name": "index",
          "type": "uint256"
        }
      ],
      "name": "tokenByIndex",
      "outputs": [
        {
          "internalType": "uint256",
          "name": "",
          "type": "uint256"
        }
      ],
      "stateMutability": "view",
      "type": "function",
      "constant": true
    },
    {
      "inputs": [
        {
          "internalType": "address",
          "name": "owner",
          "type": "address"
        },
        {
          "internalType": "uint256",
          "name": "index",
          "type": "uint256"
        }
      ],
      "name": "tokenOfOwnerByIndex",
      "outputs": [
        {
          "internalType": "uint256",
          "name": "",
          "type": "uint256"
        }
      ],
      "stateMutability": "view",
      "type": "function",
      "constant": true
    },
    {
      "inputs": [],
      "name": "getAllNftsOnSale",
      "outputs": [
        {
          "components": [
            {
              "internalType": "uint256",
              "name": "tokenId",
              "type": "uint256"
            },
            {
              "internalType": "uint256",
              "name": "price",
              "type": "uint256"
            },
            {
              "internalType": "address",
              "name": "creator",
              "type": "address"
            },
            {
              "internalType": "bool",
              "name": "isListed",
              "type": "bool"
            }
          ],
          "internalType": "struct NftMarket.NftItem[]",
          "name": "",
          "type": "tuple[]"
        }
      ],
      "stateMutability": "view",
      "type": "function",
      "constant": true
    },
    {
      "inputs": [],
      "name": "getOwnedNfts",
      "outputs": [
        {
          "components": [
            {
              "internalType": "uint256",
              "name": "tokenId",
              "type": "uint256"
            },
            {
              "internalType": "uint256",
              "name": "price",
              "type": "uint256"
            },
            {
              "internalType": "address",
              "name": "creator",
              "type": "address"
            },
            {
              "internalType": "bool",
              "name": "isListed",
              "type": "bool"
            }
          ],
          "internalType": "struct NftMarket.NftItem[]",
          "name": "",
          "type": "tuple[]"
        }
      ],
      "stateMutability": "view",
      "type": "function",
      "constant": true
    },
    {
      "inputs": [
        {
          "internalType": "uint256",
          "name": "tokenId",
          "type": "uint256"
        }
      ],
      "name": "burnToken",
      "outputs": [],
      "stateMutability": "nonpayable",
      "type": "function"
    },
    {
      "inputs": [
        {
          "internalType": "string",
          "name": "tokenURI",
          "type": "string"
        },
        {
          "internalType": "uint256",
          "name": "price",
          "type": "uint256"
        }
      ],
      "name": "mintToken",
      "outputs": [
        {
          "internalType": "uint256",
          "name": "",
          "type": "uint256"
        }
      ],
      "stateMutability": "payable",
      "type": "function",
      "payable": true
    },
    {
      "inputs": [
        {
          "internalType": "uint256",
          "name": "tokenId",
          "type": "uint256"
        }
      ],
      "name": "buyNft",
      "outputs": [],
      "stateMutability": "payable",
      "type": "function",
      "payable": true
    },
    {
      "inputs": [
        {
          "internalType": "uint256",
          "name": "tokenId",
          "type": "uint256"
        },
        {
          "internalType": "uint256",
          "name": "newPrice",
          "type": "uint256"
        }
      ],
      "name": "placeNftOnSale",
      "outputs": [],
      "stateMutability": "payable",
      "type": "function",
      "payable": true
    },
    {
      "inputs": [
        {
          "internalType": "uint256",
          "name": "newPrice",
          "type": "uint256"
        }
      ],
      "name": "setListingPrice",
      "outputs": [],
      "stateMutability": "nonpayable",
      "type": "function"
    },
    {
      "inputs": [
        {
          "internalType": "uint256",
          "name": "tokenId",
          "type": "uint256"
        }
      ],
      "name": "getNftItem",
      "outputs": [
        {
          "components": [
            {
              "internalType": "uint256",
              "name": "tokenId",
              "type": "uint256"
            },
            {
              "internalType": "uint256",
              "name": "price",
              "type": "uint256"
            },
            {
              "internalType": "address",
              "name": "creator",
              "type": "address"
            },
            {
              "internalType": "bool",
              "name": "isListed",
              "type": "bool"
            }
          ],
          "internalType": "struct NftMarket.NftItem",
          "name": "",
          "type": "tuple"
        }
      ],
      "stateMutability": "view",
      "type": "function",
      "constant": true
    },
    {
      "inputs": [],
      "name": "listedItemsCount",
      "outputs": [
        {
          "internalType": "uint256",
          "name": "",
          "type": "uint256"
        }
      ],
      "stateMutability": "view",
      "type": "function",
      "constant": true
    }
  ],
  "bytecode": "0x60806040526611c37937e080006008553480156200001c57600080fd5b506040518060400160405280601281526020017f566974616d696e204e4654204d61726b657400000000000000000000000000008152506040518060400160405280600481526020017f564e4654000000000000000000000000000000000000000000000000000000008152508160009080519060200190620000a1929190620001b1565b508060019080519060200190620000ba929190620001b1565b505050620000dd620000d1620000e360201b60201c565b620000eb60201b60201c565b620002c5565b600033905090565b6000600760009054906101000a900473ffffffffffffffffffffffffffffffffffffffff16905081600760006101000a81548173ffffffffffffffffffffffffffffffffffffffff021916908373ffffffffffffffffffffffffffffffffffffffff1602179055508173ffffffffffffffffffffffffffffffffffffffff168173ffffffffffffffffffffffffffffffffffffffff167f8be0079c531659141344cd1fd0a4f28419497f9722a3daafe3b4186f6b6457e060405160405180910390a35050565b828054620001bf9062000290565b90600052602060002090601f016020900481019282620001e357600085556200022f565b82601f10620001fe57805160ff19168380011785556200022f565b828001600101855582156200022f579182015b828111156200022e57825182559160200191906001019062000211565b5b5090506200023e919062000242565b5090565b5b808211156200025d57600081600090555060010162000243565b5090565b7f4e487b7100000000000000000000000000000000000000000000000000000000600052602260045260246000fd5b60006002820490506001821680620002a957607f821691505b602082108103620002bf57620002be62000261565b5b50919050565b614c1e80620002d56000396000f3fe6080604052600436106101c25760003560e01c806370a08231116100f7578063a22cb46511610095578063c87b56dd11610064578063c87b56dd1461063d578063ccb4918d1461067a578063e985e9c5146106a5578063f2fde38b146106e2576101c2565b8063a22cb46514610590578063b88d4fde146105b9578063c046372c146105e2578063c78f19f914610612576101c2565b80637b47ec1a116100d15780637b47ec1a146104e85780637c726b69146105115780638da5cb5b1461053a57806395d89b4114610565576101c2565b806370a082311461046957806370cbcb43146104a6578063715018a6146104d1576101c2565b8063243adbdd1161016457806342842e0e1161013e57806342842e0e146103895780634f6ccce7146103b25780636352211e146103ef5780636f1a0af51461042c576101c2565b8063243adbdd146103055780632f745c591461032157806336b536be1461035e576101c2565b8063095ea7b3116101a0578063095ea7b31461026c57806318160ddd1461029557806321f422e5146102c057806323b872dd146102dc576101c2565b806301ffc9a7146101c757806306fdde0314610204578063081812fc1461022f575b600080fd5b3480156101d357600080fd5b506101ee60048036038101906101e99190613172565b61070b565b6040516101fb91906131ba565b60405180910390f35b34801561021057600080fd5b506102196107ed565b604051610226919061326e565b60405180910390f35b34801561023b57600080fd5b50610256600480360381019061025191906132c6565b61087f565b6040516102639190613334565b60405180910390f35b34801561027857600080fd5b50610293600480360381019061028e919061337b565b610904565b005b3480156102a157600080fd5b506102aa610a1b565b6040516102b791906133ca565b60405180910390f35b6102da60048036038101906102d591906133e5565b610a28565b005b3480156102e857600080fd5b5061030360048036038101906102fe9190613425565b610ba4565b005b61031f600480360381019061031a91906132c6565b610c04565b005b34801561032d57600080fd5b506103486004803603810190610343919061337b565b610d6c565b60405161035591906133ca565b60405180910390f35b34801561036a57600080fd5b50610373610e11565b60405161038091906135a9565b60405180910390f35b34801561039557600080fd5b506103b060048036038101906103ab9190613425565b610fab565b005b3480156103be57600080fd5b506103d960048036038101906103d491906132c6565b610fcb565b6040516103e691906133ca565b60405180910390f35b3480156103fb57600080fd5b50610416600480360381019061041191906132c6565b61103c565b6040516104239190613334565b60405180910390f35b34801561043857600080fd5b50610453600480360381019061044e91906132c6565b6110ed565b6040516104609190613620565b60405180910390f35b34801561047557600080fd5b50610490600480360381019061048b919061363b565b61119f565b60405161049d91906133ca565b60405180910390f35b3480156104b257600080fd5b506104bb611256565b6040516104c891906135a9565b60405180910390f35b3480156104dd57600080fd5b506104e66113ba565b005b3480156104f457600080fd5b5061050f600480360381019061050a91906132c6565b611442565b005b34801561051d57600080fd5b50610538600480360381019061053391906132c6565b61144e565b005b34801561054657600080fd5b5061054f611517565b60405161055c9190613334565b60405180910390f35b34801561057157600080fd5b5061057a611541565b604051610587919061326e565b60405180910390f35b34801561059c57600080fd5b506105b760048036038101906105b29190613694565b6115d3565b005b3480156105c557600080fd5b506105e060048036038101906105db9190613809565b6115e9565b005b6105fc60048036038101906105f7919061392d565b61164b565b60405161060991906133ca565b60405180910390f35b34801561061e57600080fd5b5061062761175b565b60405161063491906133ca565b60405180910390f35b34801561064957600080fd5b50610664600480360381019061065f91906132c6565b611761565b604051610671919061326e565b60405180910390f35b34801561068657600080fd5b5061068f6118b2565b60405161069c91906133ca565b60405180910390f35b3480156106b157600080fd5b506106cc60048036038101906106c79190613989565b6118c3565b6040516106d991906131ba565b60405180910390f35b3480156106ee57600080fd5b506107096004803603810190610704919061363b565b611957565b005b60007f80ac58cd000000000000000000000000000000000000000000000000000000007bffffffffffffffffffffffffffffffffffffffffffffffffffffffff1916827bffffffffffffffffffffffffffffffffffffffffffffffffffffffff191614806107d657507f5b5e139f000000000000000000000000000000000000000000000000000000007bffffffffffffffffffffffffffffffffffffffffffffffffffffffff1916827bffffffffffffffffffffffffffffffffffffffffffffffffffffffff1916145b806107e657506107e582611a4e565b5b9050919050565b6060600080546107fc906139f8565b80601f0160208091040260200160405190810160405280929190818152602001828054610828906139f8565b80156108755780601f1061084a57610100808354040283529160200191610875565b820191906000526020600020905b81548152906001019060200180831161085857829003601f168201915b5050505050905090565b600061088a82611ab8565b6108c9576040517f08c379a00000000000000000000000000000000000000000000000000000000081526004016108c090613a9b565b60405180910390fd5b6004600083815260200190815260200160002060009054906101000a900473ffffffffffffffffffffffffffffffffffffffff169050919050565b600061090f8261103c565b90508073ffffffffffffffffffffffffffffffffffffffff168373ffffffffffffffffffffffffffffffffffffffff160361097f576040517f08c379a000000000000000000000000000000000000000000000000000000000815260040161097690613b2d565b60405180910390fd5b8073ffffffffffffffffffffffffffffffffffffffff1661099e611b24565b73ffffffffffffffffffffffffffffffffffffffff1614806109cd57506109cc816109c7611b24565b6118c3565b5b610a0c576040517f08c379a0000000000000000000000000000000000000000000000000000000008152600401610a0390613bbf565b60405180910390fd5b610a168383611b2c565b505050565b6000600f80549050905090565b3373ffffffffffffffffffffffffffffffffffffffff16610a488361103c565b73ffffffffffffffffffffffffffffffffffffffff1614610a9e576040517f08c379a0000000000000000000000000000000000000000000000000000000008152600401610a9590613c2b565b60405180910390fd5b60001515600c600084815260200190815260200160002060020160149054906101000a900460ff16151514610b08576040517f08c379a0000000000000000000000000000000000000000000000000000000008152600401610aff90613c97565b60405180910390fd5b6008543414610b4c576040517f08c379a0000000000000000000000000000000000000000000000000000000008152600401610b4390613d29565b60405180910390fd5b6001600c600084815260200190815260200160002060020160146101000a81548160ff02191690831515021790555080600c600084815260200190815260200160002060010181905550610ba06009611be5565b5050565b610bb5610baf611b24565b82611bfb565b610bf4576040517f08c379a0000000000000000000000000000000000000000000000000000000008152600401610beb90613dbb565b60405180910390fd5b610bff838383611cd9565b505050565b6000600c60008381526020019081526020016000206001015490506000610c2a8361103c565b90508073ffffffffffffffffffffffffffffffffffffffff163373ffffffffffffffffffffffffffffffffffffffff1603610c9a576040517f08c379a0000000000000000000000000000000000000000000000000000000008152600401610c9190613e27565b60405180910390fd5b813414610cdc576040517f08c379a0000000000000000000000000000000000000000000000000000000008152600401610cd390613e93565b60405180910390fd5b6000600c600085815260200190815260200160002060020160146101000a81548160ff021916908315150217905550610d156009611f3f565b610d20813385611cd9565b8073ffffffffffffffffffffffffffffffffffffffff166108fc349081150290604051600060405180830381858888f19350505050158015610d66573d6000803e3d6000fd5b50505050565b6000610d778361119f565b8210610db8576040517f08c379a0000000000000000000000000000000000000000000000000000000008152600401610daf90613eff565b60405180910390fd5b600d60008473ffffffffffffffffffffffffffffffffffffffff1673ffffffffffffffffffffffffffffffffffffffff168152602001908152602001600020600083815260200190815260200160002054905092915050565b60606000610e1d610a1b565b9050600080610e2c6009611f9b565b67ffffffffffffffff811115610e4557610e446136de565b5b604051908082528060200260200182016040528015610e7e57816020015b610e6b612fe3565b815260200190600190039081610e635790505b50905060005b83811015610fa1576000610e9782610fcb565b90506000600c60008381526020019081526020016000209050600115158160020160149054906101000a900460ff16151503610f8c578060405180608001604052908160008201548152602001600182015481526020016002820160009054906101000a900473ffffffffffffffffffffffffffffffffffffffff1673ffffffffffffffffffffffffffffffffffffffff1673ffffffffffffffffffffffffffffffffffffffff1681526020016002820160149054906101000a900460ff161515151581525050848681518110610f7157610f70613f1f565b5b6020026020010181905250600185610f899190613f7d565b94505b50508080610f9990613fd3565b915050610e84565b5080935050505090565b610fc6838383604051806020016040528060008152506115e9565b505050565b6000610fd5610a1b565b8210611016576040517f08c379a000000000000000000000000000000000000000000000000000000000815260040161100d90613eff565b60405180910390fd5b600f828154811061102a57611029613f1f565b5b90600052602060002001549050919050565b6000806002600084815260200190815260200160002060009054906101000a900473ffffffffffffffffffffffffffffffffffffffff169050600073ffffffffffffffffffffffffffffffffffffffff168173ffffffffffffffffffffffffffffffffffffffff16036110e4576040517f08c379a00000000000000000000000000000000000000000000000000000000081526004016110db9061408d565b60405180910390fd5b80915050919050565b6110f5612fe3565b600c600083815260200190815260200160002060405180608001604052908160008201548152602001600182015481526020016002820160009054906101000a900473ffffffffffffffffffffffffffffffffffffffff1673ffffffffffffffffffffffffffffffffffffffff1673ffffffffffffffffffffffffffffffffffffffff1681526020016002820160149054906101000a900460ff1615151515815250509050919050565b60008073ffffffffffffffffffffffffffffffffffffffff168273ffffffffffffffffffffffffffffffffffffffff160361120f576040517f08c379a00000000000000000000000000000000000000000000000000000000081526004016112069061411f565b60405180910390fd5b600360008373ffffffffffffffffffffffffffffffffffffffff1673ffffffffffffffffffffffffffffffffffffffff168152602001908152602001600020549050919050565b606060006112633361119f565b905060008167ffffffffffffffff811115611281576112806136de565b5b6040519080825280602002602001820160405280156112ba57816020015b6112a7612fe3565b81526020019060019003908161129f5790505b50905060005b828110156113b15760006112d43383610d6c565b90506000600c600083815260200190815260200160002090508060405180608001604052908160008201548152602001600182015481526020016002820160009054906101000a900473ffffffffffffffffffffffffffffffffffffffff1673ffffffffffffffffffffffffffffffffffffffff1673ffffffffffffffffffffffffffffffffffffffff1681526020016002820160149054906101000a900460ff16151515158152505084848151811061139157611390613f1f565b5b6020026020010181905250505080806113a990613fd3565b9150506112c0565b50809250505090565b6113c2611b24565b73ffffffffffffffffffffffffffffffffffffffff166113e0611517565b73ffffffffffffffffffffffffffffffffffffffff1614611436576040517f08c379a000000000000000000000000000000000000000000000000000000000815260040161142d9061418b565b60405180910390fd5b6114406000611fa9565b565b61144b8161206f565b50565b611456611b24565b73ffffffffffffffffffffffffffffffffffffffff16611474611517565b73ffffffffffffffffffffffffffffffffffffffff16146114ca576040517f08c379a00000000000000000000000000000000000000000000000000000000081526004016114c19061418b565b60405180910390fd5b6000811161150d576040517f08c379a0000000000000000000000000000000000000000000000000000000008152600401611504906141f7565b60405180910390fd5b8060088190555050565b6000600760009054906101000a900473ffffffffffffffffffffffffffffffffffffffff16905090565b606060018054611550906139f8565b80601f016020809104026020016040519081016040528092919081815260200182805461157c906139f8565b80156115c95780601f1061159e576101008083540402835291602001916115c9565b820191906000526020600020905b8154815290600101906020018083116115ac57829003601f168201915b5050505050905090565b6115e56115de611b24565b83836120c2565b5050565b6115fa6115f4611b24565b83611bfb565b611639576040517f08c379a000000000000000000000000000000000000000000000000000000000815260040161163090613dbb565b60405180910390fd5b6116458484848461222e565b50505050565b60006116568361228a565b15611696576040517f08c379a000000000000000000000000000000000000000000000000000000000815260040161168d90614263565b60405180910390fd5b60085434146116da576040517f08c379a00000000000000000000000000000000000000000000000000000000081526004016116d1906142f5565b60405180910390fd5b6116e4600a611be5565b6116ee6009611be5565b60006116fa600a611f9b565b905061170633826122c6565b61171081856122e4565b61171a8184612358565b6001600b8560405161172c9190614351565b908152602001604051809103902060006101000a81548160ff0219169083151502179055508091505092915050565b60085481565b606061176c82611ab8565b6117ab576040517f08c379a00000000000000000000000000000000000000000000000000000000081526004016117a2906143da565b60405180910390fd5b60006006600084815260200190815260200160002080546117cb906139f8565b80601f01602080910402602001604051908101604052809291908181526020018280546117f7906139f8565b80156118445780601f1061181957610100808354040283529160200191611844565b820191906000526020600020905b81548152906001019060200180831161182757829003601f168201915b5050505050905060006118556124a8565b9050600081510361186a5781925050506118ad565b60008251111561189f5780826040516020016118879291906143fa565b604051602081830303815290604052925050506118ad565b6118a8846124bf565b925050505b919050565b60006118be6009611f9b565b905090565b6000600560008473ffffffffffffffffffffffffffffffffffffffff1673ffffffffffffffffffffffffffffffffffffffff16815260200190815260200160002060008373ffffffffffffffffffffffffffffffffffffffff1673ffffffffffffffffffffffffffffffffffffffff16815260200190815260200160002060009054906101000a900460ff16905092915050565b61195f611b24565b73ffffffffffffffffffffffffffffffffffffffff1661197d611517565b73ffffffffffffffffffffffffffffffffffffffff16146119d3576040517f08c379a00000000000000000000000000000000000000000000000000000000081526004016119ca9061418b565b60405180910390fd5b600073ffffffffffffffffffffffffffffffffffffffff168173ffffffffffffffffffffffffffffffffffffffff1603611a42576040517f08c379a0000000000000000000000000000000000000000000000000000000008152600401611a3990614490565b60405180910390fd5b611a4b81611fa9565b50565b60007f01ffc9a7000000000000000000000000000000000000000000000000000000007bffffffffffffffffffffffffffffffffffffffffffffffffffffffff1916827bffffffffffffffffffffffffffffffffffffffffffffffffffffffff1916149050919050565b60008073ffffffffffffffffffffffffffffffffffffffff166002600084815260200190815260200160002060009054906101000a900473ffffffffffffffffffffffffffffffffffffffff1673ffffffffffffffffffffffffffffffffffffffff1614159050919050565b600033905090565b816004600083815260200190815260200160002060006101000a81548173ffffffffffffffffffffffffffffffffffffffff021916908373ffffffffffffffffffffffffffffffffffffffff160217905550808273ffffffffffffffffffffffffffffffffffffffff16611b9f8361103c565b73ffffffffffffffffffffffffffffffffffffffff167f8c5be1e5ebec7d5bd14f71427d1e84f3dd0314c0f7b2291e5b200ac8c7c3b92560405160405180910390a45050565b6001816000016000828254019250508190555050565b6000611c0682611ab8565b611c45576040517f08c379a0000000000000000000000000000000000000000000000000000000008152600401611c3c90614522565b60405180910390fd5b6000611c508361103c565b90508073ffffffffffffffffffffffffffffffffffffffff168473ffffffffffffffffffffffffffffffffffffffff161480611c925750611c9181856118c3565b5b80611cd057508373ffffffffffffffffffffffffffffffffffffffff16611cb88461087f565b73ffffffffffffffffffffffffffffffffffffffff16145b91505092915050565b8273ffffffffffffffffffffffffffffffffffffffff16611cf98261103c565b73ffffffffffffffffffffffffffffffffffffffff1614611d4f576040517f08c379a0000000000000000000000000000000000000000000000000000000008152600401611d46906145b4565b60405180910390fd5b600073ffffffffffffffffffffffffffffffffffffffff168273ffffffffffffffffffffffffffffffffffffffff1603611dbe576040517f08c379a0000000000000000000000000000000000000000000000000000000008152600401611db590614646565b60405180910390fd5b611dc9838383612566565b611dd4600082611b2c565b6001600360008573ffffffffffffffffffffffffffffffffffffffff1673ffffffffffffffffffffffffffffffffffffffff1681526020019081526020016000206000828254611e249190614666565b925050819055506001600360008473ffffffffffffffffffffffffffffffffffffffff1673ffffffffffffffffffffffffffffffffffffffff1681526020019081526020016000206000828254611e7b9190613f7d565b92505081905550816002600083815260200190815260200160002060006101000a81548173ffffffffffffffffffffffffffffffffffffffff021916908373ffffffffffffffffffffffffffffffffffffffff160217905550808273ffffffffffffffffffffffffffffffffffffffff168473ffffffffffffffffffffffffffffffffffffffff167fddf252ad1be2c89b69c2b068fc378daa952ba7f163c4a11628f55a4df523b3ef60405160405180910390a4611f3a838383612678565b505050565b60008160000154905060008111611f8b576040517f08c379a0000000000000000000000000000000000000000000000000000000008152600401611f82906146e6565b60405180910390fd5b6001810382600001819055505050565b600081600001549050919050565b6000600760009054906101000a900473ffffffffffffffffffffffffffffffffffffffff16905081600760006101000a81548173ffffffffffffffffffffffffffffffffffffffff021916908373ffffffffffffffffffffffffffffffffffffffff1602179055508173ffffffffffffffffffffffffffffffffffffffff168173ffffffffffffffffffffffffffffffffffffffff167f8be0079c531659141344cd1fd0a4f28419497f9722a3daafe3b4186f6b6457e060405160405180910390a35050565b6120788161267d565b6000600660008381526020019081526020016000208054612098906139f8565b9050146120bf576006600082815260200190815260200160002060006120be9190613023565b5b50565b8173ffffffffffffffffffffffffffffffffffffffff168373ffffffffffffffffffffffffffffffffffffffff1603612130576040517f08c379a000000000000000000000000000000000000000000000000000000000815260040161212790614752565b60405180910390fd5b80600560008573ffffffffffffffffffffffffffffffffffffffff1673ffffffffffffffffffffffffffffffffffffffff16815260200190815260200160002060008473ffffffffffffffffffffffffffffffffffffffff1673ffffffffffffffffffffffffffffffffffffffff16815260200190815260200160002060006101000a81548160ff0219169083151502179055508173ffffffffffffffffffffffffffffffffffffffff168373ffffffffffffffffffffffffffffffffffffffff167f17307eab39ab6107e8899845ad3d59bd9653f200f220920489ca2b5937696c318360405161222191906131ba565b60405180910390a3505050565b612239848484611cd9565b6122458484848461279a565b612284576040517f08c379a000000000000000000000000000000000000000000000000000000000815260040161227b906147e4565b60405180910390fd5b50505050565b600060011515600b836040516122a09190614351565b908152602001604051809103902060009054906101000a900460ff161515149050919050565b6122e0828260405180602001604052806000815250612921565b5050565b6122ed82611ab8565b61232c576040517f08c379a000000000000000000000000000000000000000000000000000000000815260040161232390614876565b60405180910390fd5b80600660008481526020019081526020016000209080519060200190612353929190613063565b505050565b6000811161239b576040517f08c379a0000000000000000000000000000000000000000000000000000000008152600401612392906141f7565b60405180910390fd5b60405180608001604052808381526020018281526020013373ffffffffffffffffffffffffffffffffffffffff16815260200160011515815250600c6000848152602001908152602001600020600082015181600001556020820151816001015560408201518160020160006101000a81548173ffffffffffffffffffffffffffffffffffffffff021916908373ffffffffffffffffffffffffffffffffffffffff16021790555060608201518160020160146101000a81548160ff0219169083151502179055509050507f470031062672bc0246e132c723a729c4676710ec663a29e86c88678032daddea828233600160405161249c9493929190614896565b60405180910390a15050565b606060405180602001604052806000815250905090565b60606124ca82611ab8565b612509576040517f08c379a00000000000000000000000000000000000000000000000000000000081526004016125009061494d565b60405180910390fd5b60006125136124a8565b90506000815111612533576040518060200160405280600081525061255e565b8061253d8461297c565b60405160200161254e9291906143fa565b6040516020818303038152906040525b915050919050565b612571838383612adc565b600073ffffffffffffffffffffffffffffffffffffffff168373ffffffffffffffffffffffffffffffffffffffff16036125b3576125ae81612ae1565b6125f2565b8173ffffffffffffffffffffffffffffffffffffffff168373ffffffffffffffffffffffffffffffffffffffff16146125f1576125f08382612b2a565b5b5b600073ffffffffffffffffffffffffffffffffffffffff168273ffffffffffffffffffffffffffffffffffffffff16036126345761262f81612c97565b612673565b8273ffffffffffffffffffffffffffffffffffffffff168273ffffffffffffffffffffffffffffffffffffffff1614612672576126718282612d68565b5b5b505050565b505050565b60006126888261103c565b905061269681600084612566565b6126a1600083611b2c565b6001600360008373ffffffffffffffffffffffffffffffffffffffff1673ffffffffffffffffffffffffffffffffffffffff16815260200190815260200160002060008282546126f19190614666565b925050819055506002600083815260200190815260200160002060006101000a81549073ffffffffffffffffffffffffffffffffffffffff021916905581600073ffffffffffffffffffffffffffffffffffffffff168273ffffffffffffffffffffffffffffffffffffffff167fddf252ad1be2c89b69c2b068fc378daa952ba7f163c4a11628f55a4df523b3ef60405160405180910390a461279681600084612678565b5050565b60006127bb8473ffffffffffffffffffffffffffffffffffffffff16612de7565b15612914578373ffffffffffffffffffffffffffffffffffffffff1663150b7a026127e4611b24565b8786866040518563ffffffff1660e01b815260040161280694939291906149c2565b6020604051808303816000875af192505050801561284257506040513d601f19601f8201168201806040525081019061283f9190614a23565b60015b6128c4573d8060008114612872576040519150601f19603f3d011682016040523d82523d6000602084013e612877565b606091505b5060008151036128bc576040517f08c379a00000000000000000000000000000000000000000000000000000000081526004016128b3906147e4565b60405180910390fd5b805181602001fd5b63150b7a0260e01b7bffffffffffffffffffffffffffffffffffffffffffffffffffffffff1916817bffffffffffffffffffffffffffffffffffffffffffffffffffffffff191614915050612919565b600190505b949350505050565b61292b8383612e0a565b612938600084848461279a565b612977576040517f08c379a000000000000000000000000000000000000000000000000000000000815260040161296e906147e4565b60405180910390fd5b505050565b6060600082036129c3576040518060400160405280600181526020017f30000000000000000000000000000000000000000000000000000000000000008152509050612ad7565b600082905060005b600082146129f55780806129de90613fd3565b915050600a826129ee9190614a7f565b91506129cb565b60008167ffffffffffffffff811115612a1157612a106136de565b5b6040519080825280601f01601f191660200182016040528015612a435781602001600182028036833780820191505090505b5090505b60008514612ad057600182612a5c9190614666565b9150600a85612a6b9190614ab0565b6030612a779190613f7d565b60f81b818381518110612a8d57612a8c613f1f565b5b60200101907effffffffffffffffffffffffffffffffffffffffffffffffffffffffffffff1916908160001a905350600a85612ac99190614a7f565b9450612a47565b8093505050505b919050565b505050565b600f805490506010600083815260200190815260200160002081905550600f81908060018154018082558091505060019003906000526020600020016000909190919091505550565b60006001612b378461119f565b612b419190614666565b90506000600e6000848152602001908152602001600020549050818114612c26576000600d60008673ffffffffffffffffffffffffffffffffffffffff1673ffffffffffffffffffffffffffffffffffffffff168152602001908152602001600020600084815260200190815260200160002054905080600d60008773ffffffffffffffffffffffffffffffffffffffff1673ffffffffffffffffffffffffffffffffffffffff16815260200190815260200160002060008481526020019081526020016000208190555081600e600083815260200190815260200160002081905550505b600e600084815260200190815260200160002060009055600d60008573ffffffffffffffffffffffffffffffffffffffff1673ffffffffffffffffffffffffffffffffffffffff16815260200190815260200160002060008381526020019081526020016000206000905550505050565b60006001600f80549050612cab9190614666565b90506000601060008481526020019081526020016000205490506000600f8381548110612cdb57612cda613f1f565b5b9060005260206000200154905080600f8381548110612cfd57612cfc613f1f565b5b90600052602060002001819055508160106000838152602001908152602001600020819055506010600085815260200190815260200160002060009055600f805480612d4c57612d4b614ae1565b5b6001900381819060005260206000200160009055905550505050565b6000612d738361119f565b905081600d60008573ffffffffffffffffffffffffffffffffffffffff1673ffffffffffffffffffffffffffffffffffffffff16815260200190815260200160002060008381526020019081526020016000208190555080600e600084815260200190815260200160002081905550505050565b6000808273ffffffffffffffffffffffffffffffffffffffff163b119050919050565b600073ffffffffffffffffffffffffffffffffffffffff168273ffffffffffffffffffffffffffffffffffffffff1603612e79576040517f08c379a0000000000000000000000000000000000000000000000000000000008152600401612e7090614b5c565b60405180910390fd5b612e8281611ab8565b15612ec2576040517f08c379a0000000000000000000000000000000000000000000000000000000008152600401612eb990614bc8565b60405180910390fd5b612ece60008383612566565b6001600360008473ffffffffffffffffffffffffffffffffffffffff1673ffffffffffffffffffffffffffffffffffffffff1681526020019081526020016000206000828254612f1e9190613f7d565b92505081905550816002600083815260200190815260200160002060006101000a81548173ffffffffffffffffffffffffffffffffffffffff021916908373ffffffffffffffffffffffffffffffffffffffff160217905550808273ffffffffffffffffffffffffffffffffffffffff16600073ffffffffffffffffffffffffffffffffffffffff167fddf252ad1be2c89b69c2b068fc378daa952ba7f163c4a11628f55a4df523b3ef60405160405180910390a4612fdf60008383612678565b5050565b60405180608001604052806000815260200160008152602001600073ffffffffffffffffffffffffffffffffffffffff1681526020016000151581525090565b50805461302f906139f8565b6000825580601f106130415750613060565b601f01602090049060005260206000209081019061305f91906130e9565b5b50565b82805461306f906139f8565b90600052602060002090601f01602090048101928261309157600085556130d8565b82601f106130aa57805160ff19168380011785556130d8565b828001600101855582156130d8579182015b828111156130d75782518255916020019190600101906130bc565b5b5090506130e591906130e9565b5090565b5b808211156131025760008160009055506001016130ea565b5090565b6000604051905090565b600080fd5b600080fd5b60007fffffffff0000000000000000000000000000000000000000000000000000000082169050919050565b61314f8161311a565b811461315a57600080fd5b50565b60008135905061316c81613146565b92915050565b60006020828403121561318857613187613110565b5b60006131968482850161315d565b91505092915050565b60008115159050919050565b6131b48161319f565b82525050565b60006020820190506131cf60008301846131ab565b92915050565b600081519050919050565b600082825260208201905092915050565b60005b8381101561320f5780820151818401526020810190506131f4565b8381111561321e576000848401525b50505050565b6000601f19601f8301169050919050565b6000613240826131d5565b61324a81856131e0565b935061325a8185602086016131f1565b61326381613224565b840191505092915050565b600060208201905081810360008301526132888184613235565b905092915050565b6000819050919050565b6132a381613290565b81146132ae57600080fd5b50565b6000813590506132c08161329a565b92915050565b6000602082840312156132dc576132db613110565b5b60006132ea848285016132b1565b91505092915050565b600073ffffffffffffffffffffffffffffffffffffffff82169050919050565b600061331e826132f3565b9050919050565b61332e81613313565b82525050565b60006020820190506133496000830184613325565b92915050565b61335881613313565b811461336357600080fd5b50565b6000813590506133758161334f565b92915050565b6000806040838503121561339257613391613110565b5b60006133a085828601613366565b92505060206133b1858286016132b1565b9150509250929050565b6133c481613290565b82525050565b60006020820190506133df60008301846133bb565b92915050565b600080604083850312156133fc576133fb613110565b5b600061340a858286016132b1565b925050602061341b858286016132b1565b9150509250929050565b60008060006060848603121561343e5761343d613110565b5b600061344c86828701613366565b935050602061345d86828701613366565b925050604061346e868287016132b1565b9150509250925092565b600081519050919050565b600082825260208201905092915050565b6000819050602082019050919050565b6134ad81613290565b82525050565b6134bc81613313565b82525050565b6134cb8161319f565b82525050565b6080820160008201516134e760008501826134a4565b5060208201516134fa60208501826134a4565b50604082015161350d60408501826134b3565b50606082015161352060608501826134c2565b50505050565b600061353283836134d1565b60808301905092915050565b6000602082019050919050565b600061355682613478565b6135608185613483565b935061356b83613494565b8060005b8381101561359c5781516135838882613526565b975061358e8361353e565b92505060018101905061356f565b5085935050505092915050565b600060208201905081810360008301526135c3818461354b565b905092915050565b6080820160008201516135e160008501826134a4565b5060208201516135f460208501826134a4565b50604082015161360760408501826134b3565b50606082015161361a60608501826134c2565b50505050565b600060808201905061363560008301846135cb565b92915050565b60006020828403121561365157613650613110565b5b600061365f84828501613366565b91505092915050565b6136718161319f565b811461367c57600080fd5b50565b60008135905061368e81613668565b92915050565b600080604083850312156136ab576136aa613110565b5b60006136b985828601613366565b92505060206136ca8582860161367f565b9150509250929050565b600080fd5b600080fd5b7f4e487b7100000000000000000000000000000000000000000000000000000000600052604160045260246000fd5b61371682613224565b810181811067ffffffffffffffff82111715613735576137346136de565b5b80604052505050565b6000613748613106565b9050613754828261370d565b919050565b600067ffffffffffffffff821115613774576137736136de565b5b61377d82613224565b9050602081019050919050565b82818337600083830152505050565b60006137ac6137a784613759565b61373e565b9050828152602081018484840111156137c8576137c76136d9565b5b6137d384828561378a565b509392505050565b600082601f8301126137f0576137ef6136d4565b5b8135613800848260208601613799565b91505092915050565b6000806000806080858703121561382357613822613110565b5b600061383187828801613366565b945050602061384287828801613366565b9350506040613853878288016132b1565b925050606085013567ffffffffffffffff81111561387457613873613115565b5b613880878288016137db565b91505092959194509250565b600067ffffffffffffffff8211156138a7576138a66136de565b5b6138b082613224565b9050602081019050919050565b60006138d06138cb8461388c565b61373e565b9050828152602081018484840111156138ec576138eb6136d9565b5b6138f784828561378a565b509392505050565b600082601f830112613914576139136136d4565b5b81356139248482602086016138bd565b91505092915050565b6000806040838503121561394457613943613110565b5b600083013567ffffffffffffffff81111561396257613961613115565b5b61396e858286016138ff565b925050602061397f858286016132b1565b9150509250929050565b600080604083850312156139a05761399f613110565b5b60006139ae85828601613366565b92505060206139bf85828601613366565b9150509250929050565b7f4e487b7100000000000000000000000000000000000000000000000000000000600052602260045260246000fd5b60006002820490506001821680613a1057607f821691505b602082108103613a2357613a226139c9565b5b50919050565b7f4552433732313a20617070726f76656420717565727920666f72206e6f6e657860008201527f697374656e7420746f6b656e0000000000000000000000000000000000000000602082015250565b6000613a85602c836131e0565b9150613a9082613a29565b604082019050919050565b60006020820190508181036000830152613ab481613a78565b9050919050565b7f4552433732313a20617070726f76616c20746f2063757272656e74206f776e6560008201527f7200000000000000000000000000000000000000000000000000000000000000602082015250565b6000613b176021836131e0565b9150613b2282613abb565b604082019050919050565b60006020820190508181036000830152613b4681613b0a565b9050919050565b7f4552433732313a20617070726f76652063616c6c6572206973206e6f74206f7760008201527f6e6572206e6f7220617070726f76656420666f7220616c6c0000000000000000602082015250565b6000613ba96038836131e0565b9150613bb482613b4d565b604082019050919050565b60006020820190508181036000830152613bd881613b9c565b9050919050565b7f596f7520617265206e6f74206f776e6572206f66204e46540000000000000000600082015250565b6000613c156018836131e0565b9150613c2082613bdf565b602082019050919050565b60006020820190508181036000830152613c4481613c08565b9050919050565b7f54686973204e465420697320616c7265616479206c6973746564000000000000600082015250565b6000613c81601a836131e0565b9150613c8c82613c4b565b602082019050919050565b60006020820190508181036000830152613cb081613c74565b9050919050565b7f5072696365206d75737420626520657175616c20746f206c697374696e67507260008201527f6963650000000000000000000000000000000000000000000000000000000000602082015250565b6000613d136023836131e0565b9150613d1e82613cb7565b604082019050919050565b60006020820190508181036000830152613d4281613d06565b9050919050565b7f4552433732313a207472616e736665722063616c6c6572206973206e6f74206f60008201527f776e6572206e6f7220617070726f766564000000000000000000000000000000602082015250565b6000613da56031836131e0565b9150613db082613d49565b604082019050919050565b60006020820190508181036000830152613dd481613d98565b9050919050565b7f596f7520616c7265616479206f776e2074686973204e4654206974656d000000600082015250565b6000613e11601d836131e0565b9150613e1c82613ddb565b602082019050919050565b60006020820190508181036000830152613e4081613e04565b9050919050565b7f506c65617365207375626d6974207468652061736b696e672070726963650000600082015250565b6000613e7d601e836131e0565b9150613e8882613e47565b602082019050919050565b60006020820190508181036000830152613eac81613e70565b9050919050565b7f496e646578206f7574206f662074686520626f756e6473000000000000000000600082015250565b6000613ee96017836131e0565b9150613ef482613eb3565b602082019050919050565b60006020820190508181036000830152613f1881613edc565b9050919050565b7f4e487b7100000000000000000000000000000000000000000000000000000000600052603260045260246000fd5b7f4e487b7100000000000000000000000000000000000000000000000000000000600052601160045260246000fd5b6000613f8882613290565b9150613f9383613290565b9250827fffffffffffffffffffffffffffffffffffffffffffffffffffffffffffffffff03821115613fc857613fc7613f4e565b5b828201905092915050565b6000613fde82613290565b91507fffffffffffffffffffffffffffffffffffffffffffffffffffffffffffffffff82036140105761400f613f4e565b5b600182019050919050565b7f4552433732313a206f776e657220717565727920666f72206e6f6e657869737460008201527f656e7420746f6b656e0000000000000000000000000000000000000000000000602082015250565b60006140776029836131e0565b91506140828261401b565b604082019050919050565b600060208201905081810360008301526140a68161406a565b9050919050565b7f4552433732313a2062616c616e636520717565727920666f7220746865207a6560008201527f726f206164647265737300000000000000000000000000000000000000000000602082015250565b6000614109602a836131e0565b9150614114826140ad565b604082019050919050565b60006020820190508181036000830152614138816140fc565b9050919050565b7f4f776e61626c653a2063616c6c6572206973206e6f7420746865206f776e6572600082015250565b60006141756020836131e0565b91506141808261413f565b602082019050919050565b600060208201905081810360008301526141a481614168565b9050919050565b7f5072696365206d757374206265206174206c6561737420312077656900000000600082015250565b60006141e1601c836131e0565b91506141ec826141ab565b602082019050919050565b60006020820190508181036000830152614210816141d4565b9050919050565b7f546f6b656e2055524920616c7265616479206578697374732100000000000000600082015250565b600061424d6019836131e0565b915061425882614217565b602082019050919050565b6000602082019050818103600083015261427c81614240565b9050919050565b7f5072696365206d75737420626520657175616c20746f206c697374696e67207060008201527f7269636500000000000000000000000000000000000000000000000000000000602082015250565b60006142df6024836131e0565b91506142ea82614283565b604082019050919050565b6000602082019050818103600083015261430e816142d2565b9050919050565b600081905092915050565b600061432b826131d5565b6143358185614315565b93506143458185602086016131f1565b80840191505092915050565b600061435d8284614320565b915081905092915050565b7f45524337323155524953746f726167653a2055524920717565727920666f722060008201527f6e6f6e6578697374656e7420746f6b656e000000000000000000000000000000602082015250565b60006143c46031836131e0565b91506143cf82614368565b604082019050919050565b600060208201905081810360008301526143f3816143b7565b9050919050565b60006144068285614320565b91506144128284614320565b91508190509392505050565b7f4f776e61626c653a206e6577206f776e657220697320746865207a65726f206160008201527f6464726573730000000000000000000000000000000000000000000000000000602082015250565b600061447a6026836131e0565b91506144858261441e565b604082019050919050565b600060208201905081810360008301526144a98161446d565b9050919050565b7f4552433732313a206f70657261746f7220717565727920666f72206e6f6e657860008201527f697374656e7420746f6b656e0000000000000000000000000000000000000000602082015250565b600061450c602c836131e0565b9150614517826144b0565b604082019050919050565b6000602082019050818103600083015261453b816144ff565b9050919050565b7f4552433732313a207472616e736665722066726f6d20696e636f72726563742060008201527f6f776e6572000000000000000000000000000000000000000000000000000000602082015250565b600061459e6025836131e0565b91506145a982614542565b604082019050919050565b600060208201905081810360008301526145cd81614591565b9050919050565b7f4552433732313a207472616e7366657220746f20746865207a65726f2061646460008201527f7265737300000000000000000000000000000000000000000000000000000000602082015250565b60006146306024836131e0565b915061463b826145d4565b604082019050919050565b6000602082019050818103600083015261465f81614623565b9050919050565b600061467182613290565b915061467c83613290565b92508282101561468f5761468e613f4e565b5b828203905092915050565b7f436f756e7465723a2064656372656d656e74206f766572666c6f770000000000600082015250565b60006146d0601b836131e0565b91506146db8261469a565b602082019050919050565b600060208201905081810360008301526146ff816146c3565b9050919050565b7f4552433732313a20617070726f766520746f2063616c6c657200000000000000600082015250565b600061473c6019836131e0565b915061474782614706565b602082019050919050565b6000602082019050818103600083015261476b8161472f565b9050919050565b7f4552433732313a207472616e7366657220746f206e6f6e20455243373231526560008201527f63656976657220696d706c656d656e7465720000000000000000000000000000602082015250565b60006147ce6032836131e0565b91506147d982614772565b604082019050919050565b600060208201905081810360008301526147fd816147c1565b9050919050565b7f45524337323155524953746f726167653a2055524920736574206f66206e6f6e60008201527f6578697374656e7420746f6b656e000000000000000000000000000000000000602082015250565b6000614860602e836131e0565b915061486b82614804565b604082019050919050565b6000602082019050818103600083015261488f81614853565b9050919050565b60006080820190506148ab60008301876133bb565b6148b860208301866133bb565b6148c56040830185613325565b6148d260608301846131ab565b95945050505050565b7f4552433732314d657461646174613a2055524920717565727920666f72206e6f60008201527f6e6578697374656e7420746f6b656e0000000000000000000000000000000000602082015250565b6000614937602f836131e0565b9150614942826148db565b604082019050919050565b600060208201905081810360008301526149668161492a565b9050919050565b600081519050919050565b600082825260208201905092915050565b60006149948261496d565b61499e8185614978565b93506149ae8185602086016131f1565b6149b781613224565b840191505092915050565b60006080820190506149d76000830187613325565b6149e46020830186613325565b6149f160408301856133bb565b8181036060830152614a038184614989565b905095945050505050565b600081519050614a1d81613146565b92915050565b600060208284031215614a3957614a38613110565b5b6000614a4784828501614a0e565b91505092915050565b7f4e487b7100000000000000000000000000000000000000000000000000000000600052601260045260246000fd5b6000614a8a82613290565b9150614a9583613290565b925082614aa557614aa4614a50565b5b828204905092915050565b6000614abb82613290565b9150614ac683613290565b925082614ad657614ad5614a50565b5b828206905092915050565b7f4e487b7100000000000000000000000000000000000000000000000000000000600052603160045260246000fd5b7f4552433732313a206d696e7420746f20746865207a65726f2061646472657373600082015250565b6000614b466020836131e0565b9150614b5182614b10565b602082019050919050565b60006020820190508181036000830152614b7581614b39565b9050919050565b7f4552433732313a20746f6b656e20616c7265616479206d696e74656400000000600082015250565b6000614bb2601c836131e0565b9150614bbd82614b7c565b602082019050919050565b60006020820190508181036000830152614be181614ba5565b905091905056fea2646970667358221220377e6c2b63c797b24af0cd29d5e51e7722b1e3848e9889b3b672989377fa37cc64736f6c634300080e0033",
  "immutableReferences": {},
  "source": "pragma solidity ^0.8.0;\n\nimport \"@openzeppelin/contracts/token/ERC721/extensions/ERC721URIStorage.sol\";\nimport \"@openzeppelin/contracts/utils/Counters.sol\";\nimport \"@openzeppelin/contracts/access/Ownable.sol\";\n\ncontract NftMarket is ERC721URIStorage, Ownable {\n\n    using Counters for Counters.Counter;\n\n    struct NftItem {\n        uint tokenId;\n        uint price;\n        address creator;\n        bool isListed;\n    }\n\n    uint public listingPrice = 0.005 ether;\n\n    Counters.Counter private _listedItems;\n    Counters.Counter private _tokenIds;\n\n    mapping(string => bool) private _usedTokenURIs;\n    mapping(uint => NftItem) private _idToNftItem;\n\n    mapping(address => mapping(uint => uint)) private _ownedTokens;\n    mapping(uint => uint) private _idToOwnedIndex;\n\n    uint256[] private _allNfts;\n    mapping(uint => uint) private _idToNftIndex;\n\n    event NftItemCreated(\n        uint tokenId,\n        uint price,\n        address creator,\n        bool isListed\n    );\n\n    constructor() ERC721(\"Vitamin NFT Market\", \"VNFT\") {}\n\n    function totalSupply() public view returns (uint) {\n        return _allNfts.length;\n    }\n\n    function tokenByIndex(uint index) public view returns (uint) {\n        require(index < totalSupply(), \"Index out of the bounds\");\n\n        return _allNfts[index];\n    }\n\n    function tokenOfOwnerByIndex(address owner, uint index) public view returns (uint) {\n        require(index < ERC721.balanceOf(owner), \"Index out of the bounds\");\n\n        return _ownedTokens[owner][index];\n    }\n\n    function getAllNftsOnSale() public view returns (NftItem[] memory) {\n        uint allItemsCount = totalSupply();\n        uint currentIndex = 0;\n        NftItem[] memory items = new NftItem[](_listedItems.current());\n\n        for (uint i = 0; i < allItemsCount; i++) {\n            uint tokenId = tokenByIndex(i);\n            NftItem storage item = _idToNftItem[tokenId];\n\n            if (item.isListed == true) {\n                items[currentIndex] = item;\n                currentIndex += 1;\n            }\n        }\n        return items;\n    }\n\n    function getOwnedNfts() public view returns (NftItem[] memory) {\n        uint ownedItemsCount = ERC721.balanceOf(msg.sender);\n        NftItem[] memory items = new NftItem[](ownedItemsCount);\n\n        for (uint i = 0; i < ownedItemsCount; i++) {\n            uint tokenId = tokenOfOwnerByIndex(msg.sender, i);\n            NftItem storage item = _idToNftItem[tokenId];\n            items[i] = item;\n        }\n\n        return items;\n    }\n\n    function burnToken(uint tokenId) public {\n        _burn(tokenId);\n    }\n\n    function mintToken(string memory tokenURI, uint price) public payable returns (uint) {\n        require(!tokenUriExists(tokenURI), \"Token URI already exists!\");\n        require(msg.value == listingPrice, \"Price must be equal to listing price\");\n\n        _tokenIds.increment();\n        _listedItems.increment();\n        uint newTokenId = _tokenIds.current();\n\n        _safeMint(msg.sender, newTokenId);\n        _setTokenURI(newTokenId, tokenURI);\n        _createNftItem(newTokenId, price);\n        _usedTokenURIs[tokenURI] = true;\n\n        return newTokenId;\n    }\n\n    function _createNftItem(\n        uint tokenId,\n        uint price\n    ) private {\n        require(price > 0, \"Price must be at least 1 wei\");\n\n        _idToNftItem[tokenId] = NftItem(\n            tokenId,\n            price,\n            msg.sender,\n            true\n        );\n\n        emit NftItemCreated(tokenId, price, msg.sender, true);\n    }\n\n    function buyNft(uint tokenId) public payable {\n        uint price = _idToNftItem[tokenId].price;\n        address owner = ERC721.ownerOf(tokenId);\n\n        require(msg.sender != owner, \"You already own this NFT item\");\n        require(msg.value == price, \"Please submit the asking price\");\n\n        _idToNftItem[tokenId].isListed = false;\n        _listedItems.decrement();\n\n        ERC721._transfer(owner, msg.sender, tokenId);\n        payable(owner).transfer(msg.value);\n    }\n\n    function placeNftOnSale(uint tokenId, uint newPrice) public payable {\n        require(ERC721.ownerOf(tokenId) == msg.sender, \"You are not owner of NFT\");\n        require(_idToNftItem[tokenId].isListed == false, \"This NFT is already listed\");\n        require(msg.value == listingPrice, \"Price must be equal to listingPrice\");\n\n        _idToNftItem[tokenId].isListed = true;\n        _idToNftItem[tokenId].price = newPrice;\n        _listedItems.increment();\n\n\n    }\n\n    function setListingPrice(uint newPrice) external onlyOwner {\n        require(newPrice > 0, \"Price must be at least 1 wei\");\n\n        listingPrice = newPrice;\n    }\n\n    function getNftItem(uint tokenId) public view returns (NftItem memory) {\n        return _idToNftItem[tokenId];\n    }\n\n    function listedItemsCount() public view returns (uint) {\n        return _listedItems.current();\n    }\n\n    function tokenUriExists(string memory tokenURI) private returns (bool) {\n        return _usedTokenURIs[tokenURI] == true;\n    }\n\n    function _beforeTokenTransfer(\n        address from,\n        address to,\n        uint tokenId\n    ) internal virtual override {\n        super._beforeTokenTransfer(from, to, tokenId);\n\n        if (from == address(0)) {\n            _addTokenToAllTokensEnumeration(tokenId);\n        } else if (from != to) {\n            _removeTokenFromOwnerEnumeration(from, tokenId);\n        }\n\n        if(to == address(0)){\n            _removeTokenFromAllTokensEnumeration(tokenId);\n        } else if (to != from) {\n            _addTokenToOwnerEnumeration(to, tokenId);\n        }\n    }\n\n    function _addTokenToAllTokensEnumeration(uint tokenId) private {\n        _idToNftIndex[tokenId] = _allNfts.length;\n        _allNfts.push(tokenId);\n    }\n\n    function _addTokenToOwnerEnumeration(address to, uint tokenId) private {\n        uint length = ERC721.balanceOf(to);\n\n        _ownedTokens[to][length] = tokenId;\n        _idToOwnedIndex[tokenId] = length;\n    }\n\n    function _removeTokenFromOwnerEnumeration(address from, uint tokenId) private {\n        uint lastTokenIndex = ERC721.balanceOf(from) - 1;\n        uint tokenIndex = _idToOwnedIndex[tokenId];\n\n        if (tokenIndex != lastTokenIndex) {\n            uint lastTokenId = _ownedTokens[from][lastTokenIndex];\n\n            _ownedTokens[from][tokenIndex] = lastTokenId;\n            _idToOwnedIndex[lastTokenId] = tokenIndex;\n        }\n\n        delete _idToOwnedIndex[tokenId];\n        delete _ownedTokens[from][lastTokenIndex];\n    }\n\n    function _removeTokenFromAllTokensEnumeration(uint tokenId) private {\n        uint lastTokenIndex = _allNfts.length - 1;\n        uint tokenIndex = _idToNftIndex[tokenId];\n        uint lastTokenId = _allNfts[lastTokenIndex];\n\n        _allNfts[tokenIndex] = lastTokenId;\n        _idToNftIndex[lastTokenId] = tokenIndex;\n\n        delete _idToNftIndex[tokenId];\n        _allNfts.pop();\n    }\n}\n",
  "sourcePath": "/Users/vitaliiserbyn/Documents/GitHub/NFT-marketplace/contracts/NftMarket.sol",
  "compiler": {
    "name": "solc",
    "version": "0.8.14+commit.80d49f37.Emscripten.clang"
  },
  "schemaVersion": "3.4.7",
  "updatedAt": "2022-08-22T07:35:22.725Z",
  "networkType": "ethereum",
  "devdoc": {
    "kind": "dev",
    "methods": {
      "approve(address,uint256)": {
        "details": "See {IERC721-approve}."
      },
      "balanceOf(address)": {
        "details": "See {IERC721-balanceOf}."
      },
      "getApproved(uint256)": {
        "details": "See {IERC721-getApproved}."
      },
      "isApprovedForAll(address,address)": {
        "details": "See {IERC721-isApprovedForAll}."
      },
      "name()": {
        "details": "See {IERC721Metadata-name}."
      },
      "owner()": {
        "details": "Returns the address of the current owner."
      },
      "ownerOf(uint256)": {
        "details": "See {IERC721-ownerOf}."
      },
      "renounceOwnership()": {
        "details": "Leaves the contract without owner. It will not be possible to call `onlyOwner` functions anymore. Can only be called by the current owner. NOTE: Renouncing ownership will leave the contract without an owner, thereby removing any functionality that is only available to the owner."
      },
      "safeTransferFrom(address,address,uint256)": {
        "details": "See {IERC721-safeTransferFrom}."
      },
      "safeTransferFrom(address,address,uint256,bytes)": {
        "details": "See {IERC721-safeTransferFrom}."
      },
      "setApprovalForAll(address,bool)": {
        "details": "See {IERC721-setApprovalForAll}."
      },
      "supportsInterface(bytes4)": {
        "details": "See {IERC165-supportsInterface}."
      },
      "symbol()": {
        "details": "See {IERC721Metadata-symbol}."
      },
      "tokenURI(uint256)": {
        "details": "See {IERC721Metadata-tokenURI}."
      },
      "transferFrom(address,address,uint256)": {
        "details": "See {IERC721-transferFrom}."
      },
      "transferOwnership(address)": {
        "details": "Transfers ownership of the contract to a new account (`newOwner`). Can only be called by the current owner."
      }
    },
    "version": 1
  },
  "userdoc": {
    "kind": "user",
    "methods": {},
    "version": 1
  }
}